{
  "contractName": "Counter",
  "abi": [
    {
      "constant": false,
      "inputs": [
        {
          "name": "num",
          "type": "uint256"
        }
      ],
      "name": "initialize",
      "outputs": [],
      "payable": false,
      "stateMutability": "nonpayable",
      "type": "function"
    },
    {
      "constant": false,
      "inputs": [
        {
          "name": "amount",
          "type": "uint256"
        }
      ],
      "name": "increaseCounter",
      "outputs": [],
      "payable": false,
      "stateMutability": "nonpayable",
      "type": "function"
    },
    {
      "constant": false,
      "inputs": [
        {
          "name": "amount",
          "type": "uint256"
        }
      ],
      "name": "decreaseCounter",
      "outputs": [
        {
          "name": "",
          "type": "bool"
        }
      ],
      "payable": false,
      "stateMutability": "nonpayable",
      "type": "function"
    },
    {
      "constant": true,
      "inputs": [],
      "name": "owner",
      "outputs": [
        {
          "name": "",
          "type": "address"
        }
      ],
      "payable": false,
      "stateMutability": "view",
      "type": "function"
    },
    {
      "constant": true,
      "inputs": [],
      "name": "getCounter",
      "outputs": [
        {
          "name": "",
          "type": "uint256"
        }
      ],
      "payable": false,
      "stateMutability": "view",
      "type": "function"
    }
  ],
  "bytecode": "0x608060405234801561001057600080fd5b506103e8806100206000396000f3fe608060405234801561001057600080fd5b50600436106100575760003560e01c80638ada066e1461005c5780638da5cb5b1461007a5780639e80c074146100c4578063b24f03af146100f2578063fe4b84df14610138575b600080fd5b610064610166565b6040518082815260200191505060405180910390f35b610082610170565b604051808273ffffffffffffffffffffffffffffffffffffffff1673ffffffffffffffffffffffffffffffffffffffff16815260200191505060405180910390f35b6100f0600480360360208110156100da57600080fd5b810190808035906020019092919050505061019a565b005b61011e6004803603602081101561010857600080fd5b81019080803590602001909291905050506101a8565b604051808215151515815260200191505060405180910390f35b6101646004803603602081101561014e57600080fd5b8101908080359060200190929190505050610235565b005b6000603354905090565b6000603460009054906101000a900473ffffffffffffffffffffffffffffffffffffffff16905090565b806033540160338190555050565b60008160335411610221576040517f08c379a00000000000000000000000000000000000000000000000000000000081526004018080602001828103825260168152602001807f43616e6e6f74206265206c6f776572207468616e20300000000000000000000081525060200191505060405180910390fd5b816033540360338190555060019050919050565b600060019054906101000a900460ff1680610254575061025361037d565b5b8061026b57506000809054906101000a900460ff16155b6102c0576040517f08c379a000000000000000000000000000000000000000000000000000000000815260040180806020018281038252602e81526020018061038f602e913960400191505060405180910390fd5b60008060019054906101000a900460ff161590508015610310576001600060016101000a81548160ff02191690831515021790555060016000806101000a81548160ff0219169083151502179055505b33603460006101000a81548173ffffffffffffffffffffffffffffffffffffffff021916908373ffffffffffffffffffffffffffffffffffffffff1602179055508160338190555080156103795760008060016101000a81548160ff0219169083151502179055505b5050565b600080303b9050600081149150509056fe436f6e747261637420696e7374616e63652068617320616c7265616479206265656e20696e697469616c697a6564a165627a7a7230582026bacd124dd19a4e91b50e66cdffde1d8cd2611f94f5a4354a2b2a1bcabce0000029",
  "source": "pragma solidity ^0.5.8;\n\nimport \"@openzeppelin/upgrades/contracts/Initializable.sol\";\n\ncontract Counter is Initializable {\n    //it keeps a count to demonstrate stage changes\n    uint private count;\n    address private _owner;\n\n    function initialize(uint num) public initializer {\n        _owner = msg.sender;\n        count = num;\n    }\n\n       //and it can add to a count\n    function increaseCounter(uint256 amount) public {\n        count = count + amount;\n    }\n\n    //We'll upgrade the contract with this function after deploying it\n    //Function to decrease the counter\n    function decreaseCounter(uint256 amount) public returns (bool) {\n        require(count > amount, \"Cannot be lower than 0\");\n        count = count - amount;\n        return true;\n    }\n    \n    function owner() public view returns (address) {\n        return _owner;\n    }\n\n    // getter\n    function getCounter() public view returns (uint) {\n        return count;\n    }\n}",
  "sourcePath": "/Users/alexandermazaletskiy/Documents/Compound/shitcoin-project/contracts/Counter.sol",
  "compiler": {
    "name": "solc",
    "version": "0.5.8+commit.23d335f2.Emscripten.clang"
  },
  "schemaVersion": "3.0.16",
  "updatedAt": "2019-10-21T18:17:16.017Z",
  "devdoc": {
    "methods": {}
  },
  "userdoc": {
    "methods": {}
  }
}