{
  "contractName": "MyContract_v0",
  "abi": [
    {
      "constant": true,
      "inputs": [],
      "name": "value",
      "outputs": [
        {
          "name": "",
          "type": "uint256"
        }
      ],
      "payable": false,
      "stateMutability": "view",
      "type": "function"
    },
    {
      "constant": false,
      "inputs": [
        {
          "name": "_value",
          "type": "uint256"
        }
      ],
      "name": "initialize",
      "outputs": [],
      "payable": false,
      "stateMutability": "nonpayable",
      "type": "function"
    },
    {
      "constant": true,
      "inputs": [],
      "name": "version",
      "outputs": [
        {
          "name": "",
          "type": "string"
        }
      ],
      "payable": false,
      "stateMutability": "pure",
      "type": "function"
    }
  ],
  "bytecode": "0x608060405234801561001057600080fd5b506102ca806100206000396000f3fe608060405234801561001057600080fd5b50600436106100415760003560e01c80633fa4f2451461004657806354fd4d5014610064578063fe4b84df146100e7575b600080fd5b61004e610115565b6040518082815260200191505060405180910390f35b61006c61011b565b6040518080602001828103825283818151815260200191508051906020019080838360005b838110156100ac578082015181840152602081019050610091565b50505050905090810190601f1680156100d95780820380516001836020036101000a031916815260200191505b509250505060405180910390f35b610113600480360360208110156100fd57600080fd5b8101908080359060200190929190505050610158565b005b60335481565b60606040518060400160405280600281526020017f7630000000000000000000000000000000000000000000000000000000000000815250905090565b600060019054906101000a900460ff1680610177575061017661025f565b5b8061018e57506000809054906101000a900460ff16155b6101e3576040517f08c379a000000000000000000000000000000000000000000000000000000000815260040180806020018281038252602e815260200180610271602e913960400191505060405180910390fd5b60008060019054906101000a900460ff161590508015610233576001600060016101000a81548160ff02191690831515021790555060016000806101000a81548160ff0219169083151502179055505b81603381905550801561025b5760008060016101000a81548160ff0219169083151502179055505b5050565b600080303b9050600081149150509056fe436f6e747261637420696e7374616e63652068617320616c7265616479206265656e20696e697469616c697a6564a165627a7a7230582058b512bff502343fc850ecc59650c7f0aa500a40d6f177cb882a389f77d7be6f0029",
  "source": "pragma solidity ^0.5.8;\n\nimport \"@openzeppelin/upgrades/contracts/Initializable.sol\";\n\ncontract MyContract_v0 is Initializable {\n  uint256 public value;\n  function initialize(uint256 _value) public  initializer {\n    value = _value;\n  }\n\n  function version() public pure returns (string memory) {\n    return \"v0\";\n  }\n}",
  "sourcePath": "/Users/alexandermazaletskiy/Documents/Compound/shitcoin-project/contracts/MyContract_v0.sol",
  "compiler": {
    "name": "solc",
    "version": "0.5.8+commit.23d335f2.Emscripten.clang"
  },
  "schemaVersion": "3.0.16",
  "updatedAt": "2019-10-18T12:57:30.240Z",
  "devdoc": {
    "methods": {}
  },
  "userdoc": {
    "methods": {}
  }
}