{
  "contractName": "MyContract_v1",
  "abi": [
    {
      "constant": true,
      "inputs": [],
      "name": "value",
      "outputs": [
        {
          "name": "",
          "type": "uint256"
        }
      ],
      "payable": false,
      "stateMutability": "view",
      "type": "function"
    },
    {
      "constant": false,
      "inputs": [
        {
          "name": "_value",
          "type": "uint256"
        }
      ],
      "name": "initialize",
      "outputs": [],
      "payable": false,
      "stateMutability": "nonpayable",
      "type": "function"
    },
    {
      "constant": true,
      "inputs": [],
      "name": "version",
      "outputs": [
        {
          "name": "",
          "type": "string"
        }
      ],
      "payable": false,
      "stateMutability": "pure",
      "type": "function"
    },
    {
      "constant": false,
      "inputs": [
        {
          "name": "_value",
          "type": "uint256"
        }
      ],
      "name": "add",
      "outputs": [],
      "payable": false,
      "stateMutability": "nonpayable",
      "type": "function"
    }
  ],
  "bytecode": "0x608060405234801561001057600080fd5b50610311806100206000396000f3fe608060405234801561001057600080fd5b506004361061004c5760003560e01c80631003e2d2146100515780633fa4f2451461007f57806354fd4d501461009d578063fe4b84df14610120575b600080fd5b61007d6004803603602081101561006757600080fd5b810190808035906020019092919050505061014e565b005b61008761015c565b6040518082815260200191505060405180910390f35b6100a5610162565b6040518080602001828103825283818151815260200191508051906020019080838360005b838110156100e55780820151818401526020810190506100ca565b50505050905090810190601f1680156101125780820380516001836020036101000a031916815260200191505b509250505060405180910390f35b61014c6004803603602081101561013657600080fd5b810190808035906020019092919050505061019f565b005b806033540160338190555050565b60335481565b60606040518060400160405280600281526020017f7631000000000000000000000000000000000000000000000000000000000000815250905090565b600060019054906101000a900460ff16806101be57506101bd6102a6565b5b806101d557506000809054906101000a900460ff16155b61022a576040517f08c379a000000000000000000000000000000000000000000000000000000000815260040180806020018281038252602e8152602001806102b8602e913960400191505060405180910390fd5b60008060019054906101000a900460ff16159050801561027a576001600060016101000a81548160ff02191690831515021790555060016000806101000a81548160ff0219169083151502179055505b8160338190555080156102a25760008060016101000a81548160ff0219169083151502179055505b5050565b600080303b9050600081149150509056fe436f6e747261637420696e7374616e63652068617320616c7265616479206265656e20696e697469616c697a6564a165627a7a7230582096e8a5a8ca527cb23044a7b879ab67b5752e8a4043b5b087ef2cc21787edc53c0029",
  "source": "pragma solidity ^0.5.8;\n\nimport \"@openzeppelin/upgrades/contracts/Initializable.sol\";\n\n\ncontract MyContract_v1 is Initializable {\n  uint256 public value;\n  \n  function initialize(uint256 _value) public initializer {\n    value = _value;\n  }\n\n  function version() public pure returns (string memory) {\n    return \"v1\";\n  }\n\n  function add(uint256 _value) public {\n    value = value + _value;\n  }\n}",
  "sourcePath": "/Users/alexandermazaletskiy/Documents/Compound/shitcoin-project/contracts/MyContract_v1.sol",
  "compiler": {
    "name": "solc",
    "version": "0.5.8+commit.23d335f2.Emscripten.clang"
  },
  "schemaVersion": "3.0.16",
  "updatedAt": "2019-10-18T12:57:30.241Z",
  "devdoc": {
    "methods": {}
  },
  "userdoc": {
    "methods": {}
  }
}